{
  "_format": "hh-sol-artifact-1",
  "contractName": "Token",
  "sourceName": "contracts/Token.sol",
  "abi": [
    {
      "inputs": [
        {
          "internalType": "string",
          "name": "name",
          "type": "string"
        },
        {
          "internalType": "string",
          "name": "symbol",
          "type": "string"
        },
        {
          "internalType": "uint256",
          "name": "qtyForEth",
          "type": "uint256"
        },
        {
          "internalType": "uint256",
          "name": "mintQty",
          "type": "uint256"
        }
      ],
      "stateMutability": "nonpayable",
      "type": "constructor"
    },
    {
      "anonymous": false,
      "inputs": [
        {
          "indexed": true,
          "internalType": "address",
          "name": "owner",
          "type": "address"
        },
        {
          "indexed": true,
          "internalType": "address",
          "name": "spender",
          "type": "address"
        },
        {
          "indexed": false,
          "internalType": "uint256",
          "name": "value",
          "type": "uint256"
        }
      ],
      "name": "Approval",
      "type": "event"
    },
    {
      "anonymous": false,
      "inputs": [
        {
          "indexed": true,
          "internalType": "address",
          "name": "from",
          "type": "address"
        },
        {
          "indexed": true,
          "internalType": "address",
          "name": "to",
          "type": "address"
        },
        {
          "indexed": false,
          "internalType": "uint256",
          "name": "value",
          "type": "uint256"
        }
      ],
      "name": "Transfer",
      "type": "event"
    },
    {
      "inputs": [
        {
          "internalType": "address",
          "name": "owner",
          "type": "address"
        },
        {
          "internalType": "address",
          "name": "spender",
          "type": "address"
        }
      ],
      "name": "allowance",
      "outputs": [
        {
          "internalType": "uint256",
          "name": "",
          "type": "uint256"
        }
      ],
      "stateMutability": "view",
      "type": "function"
    },
    {
      "inputs": [
        {
          "internalType": "address",
          "name": "spender",
          "type": "address"
        },
        {
          "internalType": "uint256",
          "name": "amount",
          "type": "uint256"
        }
      ],
      "name": "approve",
      "outputs": [
        {
          "internalType": "bool",
          "name": "",
          "type": "bool"
        }
      ],
      "stateMutability": "nonpayable",
      "type": "function"
    },
    {
      "inputs": [
        {
          "internalType": "address",
          "name": "account",
          "type": "address"
        }
      ],
      "name": "balanceOf",
      "outputs": [
        {
          "internalType": "uint256",
          "name": "",
          "type": "uint256"
        }
      ],
      "stateMutability": "view",
      "type": "function"
    },
    {
      "inputs": [],
      "name": "buyToken",
      "outputs": [],
      "stateMutability": "payable",
      "type": "function"
    },
    {
      "inputs": [],
      "name": "decimals",
      "outputs": [
        {
          "internalType": "uint8",
          "name": "",
          "type": "uint8"
        }
      ],
      "stateMutability": "view",
      "type": "function"
    },
    {
      "inputs": [
        {
          "internalType": "address",
          "name": "spender",
          "type": "address"
        },
        {
          "internalType": "uint256",
          "name": "subtractedValue",
          "type": "uint256"
        }
      ],
      "name": "decreaseAllowance",
      "outputs": [
        {
          "internalType": "bool",
          "name": "",
          "type": "bool"
        }
      ],
      "stateMutability": "nonpayable",
      "type": "function"
    },
    {
      "inputs": [
        {
          "internalType": "address",
          "name": "user",
          "type": "address"
        }
      ],
      "name": "getBalance",
      "outputs": [
        {
          "internalType": "uint256",
          "name": "",
          "type": "uint256"
        }
      ],
      "stateMutability": "view",
      "type": "function"
    },
    {
      "inputs": [],
      "name": "getSummary",
      "outputs": [
        {
          "internalType": "string",
          "name": "",
          "type": "string"
        },
        {
          "internalType": "string",
          "name": "",
          "type": "string"
        },
        {
          "internalType": "uint256",
          "name": "",
          "type": "uint256"
        },
        {
          "internalType": "uint256",
          "name": "",
          "type": "uint256"
        }
      ],
      "stateMutability": "view",
      "type": "function"
    },
    {
      "inputs": [
        {
          "internalType": "address",
          "name": "spender",
          "type": "address"
        },
        {
          "internalType": "uint256",
          "name": "addedValue",
          "type": "uint256"
        }
      ],
      "name": "increaseAllowance",
      "outputs": [
        {
          "internalType": "bool",
          "name": "",
          "type": "bool"
        }
      ],
      "stateMutability": "nonpayable",
      "type": "function"
    },
    {
      "inputs": [
        {
          "internalType": "uint256",
          "name": "tokenQnty",
          "type": "uint256"
        }
      ],
      "name": "mintToken",
      "outputs": [],
      "stateMutability": "nonpayable",
      "type": "function"
    },
    {
      "inputs": [],
      "name": "name",
      "outputs": [
        {
          "internalType": "string",
          "name": "",
          "type": "string"
        }
      ],
      "stateMutability": "view",
      "type": "function"
    },
    {
      "inputs": [
        {
          "internalType": "address",
          "name": "to",
          "type": "address"
        },
        {
          "internalType": "uint256",
          "name": "amount",
          "type": "uint256"
        },
        {
          "internalType": "address",
          "name": "admin",
          "type": "address"
        }
      ],
      "name": "sendUserSomeToken",
      "outputs": [],
      "stateMutability": "payable",
      "type": "function"
    },
    {
      "inputs": [
        {
          "internalType": "uint256",
          "name": "qty",
          "type": "uint256"
        }
      ],
      "name": "setUnitsOneEthCanBuy",
      "outputs": [],
      "stateMutability": "nonpayable",
      "type": "function"
    },
    {
      "inputs": [],
      "name": "symbol",
      "outputs": [
        {
          "internalType": "string",
          "name": "",
          "type": "string"
        }
      ],
      "stateMutability": "view",
      "type": "function"
    },
    {
      "inputs": [],
      "name": "totalSupply",
      "outputs": [
        {
          "internalType": "uint256",
          "name": "",
          "type": "uint256"
        }
      ],
      "stateMutability": "view",
      "type": "function"
    },
    {
      "inputs": [
        {
          "internalType": "address",
          "name": "to",
          "type": "address"
        },
        {
          "internalType": "uint256",
          "name": "amount",
          "type": "uint256"
        }
      ],
      "name": "transfer",
      "outputs": [
        {
          "internalType": "bool",
          "name": "",
          "type": "bool"
        }
      ],
      "stateMutability": "nonpayable",
      "type": "function"
    },
    {
      "inputs": [
        {
          "internalType": "address",
          "name": "from",
          "type": "address"
        },
        {
          "internalType": "address",
          "name": "to",
          "type": "address"
        },
        {
          "internalType": "uint256",
          "name": "amount",
          "type": "uint256"
        }
      ],
      "name": "transferFrom",
      "outputs": [
        {
          "internalType": "bool",
          "name": "",
          "type": "bool"
        }
      ],
      "stateMutability": "nonpayable",
      "type": "function"
    },
    {
      "stateMutability": "payable",
      "type": "receive"
    }
  ],
  "bytecode": "0x60806040523480156200001157600080fd5b5060405162002a4138038062002a418339818101604052810190620000379190620005db565b838381600390805190602001906200005192919062000353565b5080600490805190602001906200006a92919062000353565b50505033600660006101000a81548173ffffffffffffffffffffffffffffffffffffffff021916908373ffffffffffffffffffffffffffffffffffffffff16021790555081600581905550620000c681620000d060201b60201c565b5050505062000acb565b600660009054906101000a900473ffffffffffffffffffffffffffffffffffffffff1673ffffffffffffffffffffffffffffffffffffffff163373ffffffffffffffffffffffffffffffffffffffff161462000163576040517f08c379a00000000000000000000000000000000000000000000000000000000081526004016200015a9062000712565b60405180910390fd5b620001c4600660009054906101000a900473ffffffffffffffffffffffffffffffffffffffff166200019a620001c760201b60201c565b60ff16600a620001ab9190620008b7565b83620001b8919062000908565b620001d060201b60201c565b50565b60006012905090565b600073ffffffffffffffffffffffffffffffffffffffff168273ffffffffffffffffffffffffffffffffffffffff16141562000243576040517f08c379a00000000000000000000000000000000000000000000000000000000081526004016200023a90620009b9565b60405180910390fd5b62000257600083836200034960201b60201c565b80600260008282546200026b9190620009db565b92505081905550806000808473ffffffffffffffffffffffffffffffffffffffff1673ffffffffffffffffffffffffffffffffffffffff1681526020019081526020016000206000828254620002c29190620009db565b925050819055508173ffffffffffffffffffffffffffffffffffffffff16600073ffffffffffffffffffffffffffffffffffffffff167fddf252ad1be2c89b69c2b068fc378daa952ba7f163c4a11628f55a4df523b3ef8360405162000329919062000a49565b60405180910390a362000345600083836200034e60201b60201c565b5050565b505050565b505050565b828054620003619062000a95565b90600052602060002090601f016020900481019282620003855760008555620003d1565b82601f10620003a057805160ff1916838001178555620003d1565b82800160010185558215620003d1579182015b82811115620003d0578251825591602001919060010190620003b3565b5b509050620003e09190620003e4565b5090565b5b80821115620003ff576000816000905550600101620003e5565b5090565b6000604051905090565b600080fd5b600080fd5b600080fd5b600080fd5b6000601f19601f8301169050919050565b7f4e487b7100000000000000000000000000000000000000000000000000000000600052604160045260246000fd5b6200046c8262000421565b810181811067ffffffffffffffff821117156200048e576200048d62000432565b5b80604052505050565b6000620004a362000403565b9050620004b1828262000461565b919050565b600067ffffffffffffffff821115620004d457620004d362000432565b5b620004df8262000421565b9050602081019050919050565b60005b838110156200050c578082015181840152602081019050620004ef565b838111156200051c576000848401525b50505050565b6000620005396200053384620004b6565b62000497565b9050828152602081018484840111156200055857620005576200041c565b5b62000565848285620004ec565b509392505050565b600082601f83011262000585576200058462000417565b5b81516200059784826020860162000522565b91505092915050565b6000819050919050565b620005b581620005a0565b8114620005c157600080fd5b50565b600081519050620005d581620005aa565b92915050565b60008060008060808587031215620005f857620005f76200040d565b5b600085015167ffffffffffffffff81111562000619576200061862000412565b5b62000627878288016200056d565b945050602085015167ffffffffffffffff8111156200064b576200064a62000412565b5b62000659878288016200056d565b93505060406200066c87828801620005c4565b92505060606200067f87828801620005c4565b91505092959194509250565b600082825260208201905092915050565b7f536f72727920796f7520617265206e6f7420617574686f726973656420746f2060008201527f706572666f726d2074686973206f7065726174696f6e00000000000000000000602082015250565b6000620006fa6036836200068b565b915062000707826200069c565b604082019050919050565b600060208201905081810360008301526200072d81620006eb565b9050919050565b7f4e487b7100000000000000000000000000000000000000000000000000000000600052601160045260246000fd5b60008160011c9050919050565b6000808291508390505b6001851115620007c2578086048111156200079a576200079962000734565b5b6001851615620007aa5780820291505b8081029050620007ba8562000763565b94506200077a565b94509492505050565b600082620007dd5760019050620008b0565b81620007ed5760009050620008b0565b8160018114620008065760028114620008115762000847565b6001915050620008b0565b60ff84111562000826576200082562000734565b5b8360020a91508482111562000840576200083f62000734565b5b50620008b0565b5060208310610133831016604e8410600b8410161715620008815782820a9050838111156200087b576200087a62000734565b5b620008b0565b62000890848484600162000770565b92509050818404811115620008aa57620008a962000734565b5b81810290505b9392505050565b6000620008c482620005a0565b9150620008d183620005a0565b9250620009007fffffffffffffffffffffffffffffffffffffffffffffffffffffffffffffffff8484620007cb565b905092915050565b60006200091582620005a0565b91506200092283620005a0565b9250817fffffffffffffffffffffffffffffffffffffffffffffffffffffffffffffffff04831182151516156200095e576200095d62000734565b5b828202905092915050565b7f45524332303a206d696e7420746f20746865207a65726f206164647265737300600082015250565b6000620009a1601f836200068b565b9150620009ae8262000969565b602082019050919050565b60006020820190508181036000830152620009d48162000992565b9050919050565b6000620009e882620005a0565b9150620009f583620005a0565b9250827fffffffffffffffffffffffffffffffffffffffffffffffffffffffffffffffff0382111562000a2d5762000a2c62000734565b5b828201905092915050565b62000a4381620005a0565b82525050565b600060208201905062000a60600083018462000a38565b92915050565b7f4e487b7100000000000000000000000000000000000000000000000000000000600052602260045260246000fd5b6000600282049050600182168062000aae57607f821691505b6020821081141562000ac55762000ac462000a66565b5b50919050565b611f668062000adb6000396000f3fe6080604052600436106101025760003560e01c80637ffa37a111610095578063a9059cbb11610064578063a9059cbb146104dc578063c634d03214610519578063cc8bd06014610542578063dd62ed3e1461056b578063f8b2cb4f146105a8576102a6565b80637ffa37a11461044e57806395d89b411461046a578063a457c2d714610495578063a4821719146104d2576102a6565b8063313ce567116100d1578063313ce5671461037b57806339509351146103a65780634051ddac146103e357806370a0823114610411576102a6565b806306fdde03146102ab578063095ea7b3146102d657806318160ddd1461031357806323b872dd1461033e576102a6565b366102a65760006005543461011791906113ab565b905080610145600660009054906101000a900473ffffffffffffffffffffffffffffffffffffffff166105e5565b1015610186576040517f08c379a000000000000000000000000000000000000000000000000000000000815260040161017d90611462565b60405180910390fd5b6101b3600660009054906101000a900473ffffffffffffffffffffffffffffffffffffffff16338361062d565b3373ffffffffffffffffffffffffffffffffffffffff16600660009054906101000a900473ffffffffffffffffffffffffffffffffffffffff1673ffffffffffffffffffffffffffffffffffffffff167fddf252ad1be2c89b69c2b068fc378daa952ba7f163c4a11628f55a4df523b3ef836040516102329190611491565b60405180910390a3600660009054906101000a900473ffffffffffffffffffffffffffffffffffffffff1673ffffffffffffffffffffffffffffffffffffffff166108fc349081150290604051600060405180830381858888f193505050501580156102a2573d6000803e3d6000fd5b5050005b600080fd5b3480156102b757600080fd5b506102c06108ae565b6040516102cd9190611534565b60405180910390f35b3480156102e257600080fd5b506102fd60048036038101906102f891906115e5565b610940565b60405161030a9190611640565b60405180910390f35b34801561031f57600080fd5b50610328610963565b6040516103359190611491565b60405180910390f35b34801561034a57600080fd5b506103656004803603810190610360919061165b565b61096d565b6040516103729190611640565b60405180910390f35b34801561038757600080fd5b5061039061099c565b60405161039d91906116ca565b60405180910390f35b3480156103b257600080fd5b506103cd60048036038101906103c891906115e5565b6109a5565b6040516103da9190611640565b60405180910390f35b3480156103ef57600080fd5b506103f86109dc565b60405161040894939291906116e5565b60405180910390f35b34801561041d57600080fd5b5061043860048036038101906104339190611738565b6105e5565b6040516104459190611491565b60405180910390f35b61046860048036038101906104639190611765565b610a0b565b005b34801561047657600080fd5b5061047f610acb565b60405161048c9190611534565b60405180910390f35b3480156104a157600080fd5b506104bc60048036038101906104b791906115e5565b610b5d565b6040516104c99190611640565b60405180910390f35b6104da610bd4565b005b3480156104e857600080fd5b5061050360048036038101906104fe91906115e5565b610d73565b6040516105109190611640565b60405180910390f35b34801561052557600080fd5b50610540600480360381019061053b91906117b8565b610d96565b005b34801561054e57600080fd5b50610569600480360381019061056491906117b8565b610e76565b005b34801561057757600080fd5b50610592600480360381019061058d91906117e5565b610f10565b60405161059f9190611491565b60405180910390f35b3480156105b457600080fd5b506105cf60048036038101906105ca9190611738565b610f97565b6040516105dc9190611491565b60405180910390f35b60008060008373ffffffffffffffffffffffffffffffffffffffff1673ffffffffffffffffffffffffffffffffffffffff168152602001908152602001600020549050919050565b600073ffffffffffffffffffffffffffffffffffffffff168373ffffffffffffffffffffffffffffffffffffffff16141561069d576040517f08c379a000000000000000000000000000000000000000000000000000000000815260040161069490611897565b60405180910390fd5b600073ffffffffffffffffffffffffffffffffffffffff168273ffffffffffffffffffffffffffffffffffffffff16141561070d576040517f08c379a000000000000000000000000000000000000000000000000000000000815260040161070490611929565b60405180910390fd5b610718838383610fa9565b60008060008573ffffffffffffffffffffffffffffffffffffffff1673ffffffffffffffffffffffffffffffffffffffff1681526020019081526020016000205490508181101561079e576040517f08c379a0000000000000000000000000000000000000000000000000000000008152600401610795906119bb565b60405180910390fd5b8181036000808673ffffffffffffffffffffffffffffffffffffffff1673ffffffffffffffffffffffffffffffffffffffff16815260200190815260200160002081905550816000808573ffffffffffffffffffffffffffffffffffffffff1673ffffffffffffffffffffffffffffffffffffffff168152602001908152602001600020600082825461083191906119db565b925050819055508273ffffffffffffffffffffffffffffffffffffffff168473ffffffffffffffffffffffffffffffffffffffff167fddf252ad1be2c89b69c2b068fc378daa952ba7f163c4a11628f55a4df523b3ef846040516108959190611491565b60405180910390a36108a8848484610fae565b50505050565b6060600380546108bd90611a60565b80601f01602080910402602001604051908101604052809291908181526020018280546108e990611a60565b80156109365780601f1061090b57610100808354040283529160200191610936565b820191906000526020600020905b81548152906001019060200180831161091957829003601f168201915b5050505050905090565b60008061094b610fb3565b9050610958818585610fbb565b600191505092915050565b6000600254905090565b600080610978610fb3565b9050610985858285611186565b61099085858561062d565b60019150509392505050565b60006012905090565b6000806109b0610fb3565b90506109d18185856109c28589610f10565b6109cc91906119db565b610fbb565b600191505092915050565b6060806000806109ea6108ae565b6109f2610acb565b6109fa610963565b600554935093509350935090919293565b81610a15826105e5565b1015610a56576040517f08c379a0000000000000000000000000000000000000000000000000000000008152600401610a4d90611462565b60405180910390fd5b610a6181848461062d565b8273ffffffffffffffffffffffffffffffffffffffff168173ffffffffffffffffffffffffffffffffffffffff167fddf252ad1be2c89b69c2b068fc378daa952ba7f163c4a11628f55a4df523b3ef84604051610abe9190611491565b60405180910390a3505050565b606060048054610ada90611a60565b80601f0160208091040260200160405190810160405280929190818152602001828054610b0690611a60565b8015610b535780601f10610b2857610100808354040283529160200191610b53565b820191906000526020600020905b815481529060010190602001808311610b3657829003601f168201915b5050505050905090565b600080610b68610fb3565b90506000610b768286610f10565b905083811015610bbb576040517f08c379a0000000000000000000000000000000000000000000000000000000008152600401610bb290611b04565b60405180910390fd5b610bc88286868403610fbb565b60019250505092915050565b600060055434610be491906113ab565b905080610c12600660009054906101000a900473ffffffffffffffffffffffffffffffffffffffff166105e5565b1015610c53576040517f08c379a0000000000000000000000000000000000000000000000000000000008152600401610c4a90611462565b60405180910390fd5b610c80600660009054906101000a900473ffffffffffffffffffffffffffffffffffffffff16338361062d565b3373ffffffffffffffffffffffffffffffffffffffff16600660009054906101000a900473ffffffffffffffffffffffffffffffffffffffff1673ffffffffffffffffffffffffffffffffffffffff167fddf252ad1be2c89b69c2b068fc378daa952ba7f163c4a11628f55a4df523b3ef83604051610cff9190611491565b60405180910390a3600660009054906101000a900473ffffffffffffffffffffffffffffffffffffffff1673ffffffffffffffffffffffffffffffffffffffff166108fc349081150290604051600060405180830381858888f19350505050158015610d6f573d6000803e3d6000fd5b5050565b600080610d7e610fb3565b9050610d8b81858561062d565b600191505092915050565b600660009054906101000a900473ffffffffffffffffffffffffffffffffffffffff1673ffffffffffffffffffffffffffffffffffffffff163373ffffffffffffffffffffffffffffffffffffffff1614610e26576040517f08c379a0000000000000000000000000000000000000000000000000000000008152600401610e1d90611b96565b60405180910390fd5b610e73600660009054906101000a900473ffffffffffffffffffffffffffffffffffffffff16610e5461099c565b60ff16600a610e639190611ce9565b83610e6e91906113ab565b611212565b50565b600660009054906101000a900473ffffffffffffffffffffffffffffffffffffffff1673ffffffffffffffffffffffffffffffffffffffff163373ffffffffffffffffffffffffffffffffffffffff1614610f06576040517f08c379a0000000000000000000000000000000000000000000000000000000008152600401610efd90611b96565b60405180910390fd5b8060058190555050565b6000600160008473ffffffffffffffffffffffffffffffffffffffff1673ffffffffffffffffffffffffffffffffffffffff16815260200190815260200160002060008373ffffffffffffffffffffffffffffffffffffffff1673ffffffffffffffffffffffffffffffffffffffff16815260200190815260200160002054905092915050565b6000610fa2826105e5565b9050919050565b505050565b505050565b600033905090565b600073ffffffffffffffffffffffffffffffffffffffff168373ffffffffffffffffffffffffffffffffffffffff16141561102b576040517f08c379a000000000000000000000000000000000000000000000000000000000815260040161102290611da6565b60405180910390fd5b600073ffffffffffffffffffffffffffffffffffffffff168273ffffffffffffffffffffffffffffffffffffffff16141561109b576040517f08c379a000000000000000000000000000000000000000000000000000000000815260040161109290611e38565b60405180910390fd5b80600160008573ffffffffffffffffffffffffffffffffffffffff1673ffffffffffffffffffffffffffffffffffffffff16815260200190815260200160002060008473ffffffffffffffffffffffffffffffffffffffff1673ffffffffffffffffffffffffffffffffffffffff168152602001908152602001600020819055508173ffffffffffffffffffffffffffffffffffffffff168373ffffffffffffffffffffffffffffffffffffffff167f8c5be1e5ebec7d5bd14f71427d1e84f3dd0314c0f7b2291e5b200ac8c7c3b925836040516111799190611491565b60405180910390a3505050565b60006111928484610f10565b90507fffffffffffffffffffffffffffffffffffffffffffffffffffffffffffffffff811461120c57818110156111fe576040517f08c379a00000000000000000000000000000000000000000000000000000000081526004016111f590611ea4565b60405180910390fd5b61120b8484848403610fbb565b5b50505050565b600073ffffffffffffffffffffffffffffffffffffffff168273ffffffffffffffffffffffffffffffffffffffff161415611282576040517f08c379a000000000000000000000000000000000000000000000000000000000815260040161127990611f10565b60405180910390fd5b61128e60008383610fa9565b80600260008282546112a091906119db565b92505081905550806000808473ffffffffffffffffffffffffffffffffffffffff1673ffffffffffffffffffffffffffffffffffffffff16815260200190815260200160002060008282546112f591906119db565b925050819055508173ffffffffffffffffffffffffffffffffffffffff16600073ffffffffffffffffffffffffffffffffffffffff167fddf252ad1be2c89b69c2b068fc378daa952ba7f163c4a11628f55a4df523b3ef8360405161135a9190611491565b60405180910390a361136e60008383610fae565b5050565b6000819050919050565b7f4e487b7100000000000000000000000000000000000000000000000000000000600052601160045260246000fd5b60006113b682611372565b91506113c183611372565b9250817fffffffffffffffffffffffffffffffffffffffffffffffffffffffffffffffff04831182151516156113fa576113f961137c565b5b828202905092915050565b600082825260208201905092915050565b7f4e6f7420656e6f75676820746f6b656e73000000000000000000000000000000600082015250565b600061144c601183611405565b915061145782611416565b602082019050919050565b6000602082019050818103600083015261147b8161143f565b9050919050565b61148b81611372565b82525050565b60006020820190506114a66000830184611482565b92915050565b600081519050919050565b60005b838110156114d55780820151818401526020810190506114ba565b838111156114e4576000848401525b50505050565b6000601f19601f8301169050919050565b6000611506826114ac565b6115108185611405565b93506115208185602086016114b7565b611529816114ea565b840191505092915050565b6000602082019050818103600083015261154e81846114fb565b905092915050565b600080fd5b600073ffffffffffffffffffffffffffffffffffffffff82169050919050565b60006115868261155b565b9050919050565b6115968161157b565b81146115a157600080fd5b50565b6000813590506115b38161158d565b92915050565b6115c281611372565b81146115cd57600080fd5b50565b6000813590506115df816115b9565b92915050565b600080604083850312156115fc576115fb611556565b5b600061160a858286016115a4565b925050602061161b858286016115d0565b9150509250929050565b60008115159050919050565b61163a81611625565b82525050565b60006020820190506116556000830184611631565b92915050565b60008060006060848603121561167457611673611556565b5b6000611682868287016115a4565b9350506020611693868287016115a4565b92505060406116a4868287016115d0565b9150509250925092565b600060ff82169050919050565b6116c4816116ae565b82525050565b60006020820190506116df60008301846116bb565b92915050565b600060808201905081810360008301526116ff81876114fb565b9050818103602083015261171381866114fb565b90506117226040830185611482565b61172f6060830184611482565b95945050505050565b60006020828403121561174e5761174d611556565b5b600061175c848285016115a4565b91505092915050565b60008060006060848603121561177e5761177d611556565b5b600061178c868287016115a4565b935050602061179d868287016115d0565b92505060406117ae868287016115a4565b9150509250925092565b6000602082840312156117ce576117cd611556565b5b60006117dc848285016115d0565b91505092915050565b600080604083850312156117fc576117fb611556565b5b600061180a858286016115a4565b925050602061181b858286016115a4565b9150509250929050565b7f45524332303a207472616e736665722066726f6d20746865207a65726f20616460008201527f6472657373000000000000000000000000000000000000000000000000000000602082015250565b6000611881602583611405565b915061188c82611825565b604082019050919050565b600060208201905081810360008301526118b081611874565b9050919050565b7f45524332303a207472616e7366657220746f20746865207a65726f206164647260008201527f6573730000000000000000000000000000000000000000000000000000000000602082015250565b6000611913602383611405565b915061191e826118b7565b604082019050919050565b6000602082019050818103600083015261194281611906565b9050919050565b7f45524332303a207472616e7366657220616d6f756e742065786365656473206260008201527f616c616e63650000000000000000000000000000000000000000000000000000602082015250565b60006119a5602683611405565b91506119b082611949565b604082019050919050565b600060208201905081810360008301526119d481611998565b9050919050565b60006119e682611372565b91506119f183611372565b9250827fffffffffffffffffffffffffffffffffffffffffffffffffffffffffffffffff03821115611a2657611a2561137c565b5b828201905092915050565b7f4e487b7100000000000000000000000000000000000000000000000000000000600052602260045260246000fd5b60006002820490506001821680611a7857607f821691505b60208210811415611a8c57611a8b611a31565b5b50919050565b7f45524332303a2064656372656173656420616c6c6f77616e63652062656c6f7760008201527f207a65726f000000000000000000000000000000000000000000000000000000602082015250565b6000611aee602583611405565b9150611af982611a92565b604082019050919050565b60006020820190508181036000830152611b1d81611ae1565b9050919050565b7f536f72727920796f7520617265206e6f7420617574686f726973656420746f2060008201527f706572666f726d2074686973206f7065726174696f6e00000000000000000000602082015250565b6000611b80603683611405565b9150611b8b82611b24565b604082019050919050565b60006020820190508181036000830152611baf81611b73565b9050919050565b60008160011c9050919050565b6000808291508390505b6001851115611c0d57808604811115611be957611be861137c565b5b6001851615611bf85780820291505b8081029050611c0685611bb6565b9450611bcd565b94509492505050565b600082611c265760019050611ce2565b81611c345760009050611ce2565b8160018114611c4a5760028114611c5457611c83565b6001915050611ce2565b60ff841115611c6657611c6561137c565b5b8360020a915084821115611c7d57611c7c61137c565b5b50611ce2565b5060208310610133831016604e8410600b8410161715611cb85782820a905083811115611cb357611cb261137c565b5b611ce2565b611cc58484846001611bc3565b92509050818404811115611cdc57611cdb61137c565b5b81810290505b9392505050565b6000611cf482611372565b9150611cff83611372565b9250611d2c7fffffffffffffffffffffffffffffffffffffffffffffffffffffffffffffffff8484611c16565b905092915050565b7f45524332303a20617070726f76652066726f6d20746865207a65726f2061646460008201527f7265737300000000000000000000000000000000000000000000000000000000602082015250565b6000611d90602483611405565b9150611d9b82611d34565b604082019050919050565b60006020820190508181036000830152611dbf81611d83565b9050919050565b7f45524332303a20617070726f766520746f20746865207a65726f20616464726560008201527f7373000000000000000000000000000000000000000000000000000000000000602082015250565b6000611e22602283611405565b9150611e2d82611dc6565b604082019050919050565b60006020820190508181036000830152611e5181611e15565b9050919050565b7f45524332303a20696e73756666696369656e7420616c6c6f77616e6365000000600082015250565b6000611e8e601d83611405565b9150611e9982611e58565b602082019050919050565b60006020820190508181036000830152611ebd81611e81565b9050919050565b7f45524332303a206d696e7420746f20746865207a65726f206164647265737300600082015250565b6000611efa601f83611405565b9150611f0582611ec4565b602082019050919050565b60006020820190508181036000830152611f2981611eed565b905091905056fea26469706673582212204583a0bdb2f0c977a6a925e8b9b679db16bc7203156bdcb095bdab3ba34af18964736f6c63430008090033",
  "linkReferences": {},
  "deployedLinkReferences": {}
}