{
  "_format": "hh-sol-artifact-1",
  "contractName": "SocialMedia",
  "sourceName": "contracts/social-media.sol",
  "abi": [
    {
      "inputs": [],
      "stateMutability": "nonpayable",
      "type": "constructor"
    },
    {
      "anonymous": false,
      "inputs": [
        {
          "indexed": false,
          "internalType": "address",
          "name": "owner",
          "type": "address"
        },
        {
          "components": [
            {
              "internalType": "address",
              "name": "owner",
              "type": "address"
            },
            {
              "internalType": "string",
              "name": "imageHash",
              "type": "string"
            },
            {
              "internalType": "string",
              "name": "id",
              "type": "string"
            },
            {
              "internalType": "uint256",
              "name": "likes",
              "type": "uint256"
            },
            {
              "internalType": "string",
              "name": "title",
              "type": "string"
            },
            {
              "internalType": "bool",
              "name": "isActive",
              "type": "bool"
            },
            {
              "internalType": "string",
              "name": "time",
              "type": "string"
            }
          ],
          "indexed": false,
          "internalType": "struct SocialMedia.Post",
          "name": "post",
          "type": "tuple"
        }
      ],
      "name": "PostAdd",
      "type": "event"
    },
    {
      "inputs": [
        {
          "internalType": "string",
          "name": "_title",
          "type": "string"
        },
        {
          "internalType": "string",
          "name": "_imageHash",
          "type": "string"
        },
        {
          "internalType": "string",
          "name": "date_time",
          "type": "string"
        },
        {
          "internalType": "string",
          "name": "_id",
          "type": "string"
        }
      ],
      "name": "addPost",
      "outputs": [],
      "stateMutability": "nonpayable",
      "type": "function"
    },
    {
      "inputs": [],
      "name": "getAllPosts",
      "outputs": [
        {
          "components": [
            {
              "internalType": "address",
              "name": "owner",
              "type": "address"
            },
            {
              "internalType": "string",
              "name": "imageHash",
              "type": "string"
            },
            {
              "internalType": "string",
              "name": "id",
              "type": "string"
            },
            {
              "internalType": "uint256",
              "name": "likes",
              "type": "uint256"
            },
            {
              "internalType": "string",
              "name": "title",
              "type": "string"
            },
            {
              "internalType": "bool",
              "name": "isActive",
              "type": "bool"
            },
            {
              "internalType": "string",
              "name": "time",
              "type": "string"
            }
          ],
          "internalType": "struct SocialMedia.Post[]",
          "name": "",
          "type": "tuple[]"
        }
      ],
      "stateMutability": "view",
      "type": "function"
    },
    {
      "inputs": [
        {
          "internalType": "string",
          "name": "_id",
          "type": "string"
        }
      ],
      "name": "likePost",
      "outputs": [],
      "stateMutability": "nonpayable",
      "type": "function"
    }
  ],
  "bytecode": "0x608060405234801561001057600080fd5b506111ce806100206000396000f3fe608060405234801561001057600080fd5b50600436106100415760003560e01c806330561100146100465780634c57e97a14610064578063eb2b030414610080575b600080fd5b61004e61009c565b60405161005b9190610a21565b60405180910390f35b61007e60048036038101906100799190610abc565b6103be565b005b61009a60048036038101906100959190610cd5565b61058f565b005b60606000805480602002602001604051908101604052809291908181526020016000905b828210156103b557838290600052602060002090600702016040518060e00160405290816000820160009054906101000a900473ffffffffffffffffffffffffffffffffffffffff1673ffffffffffffffffffffffffffffffffffffffff1673ffffffffffffffffffffffffffffffffffffffff16815260200160018201805461014990610d4d565b80601f016020809104026020016040519081016040528092919081815260200182805461017590610d4d565b80156101c25780601f10610197576101008083540402835291602001916101c2565b820191906000526020600020905b8154815290600101906020018083116101a557829003601f168201915b505050505081526020016002820180546101db90610d4d565b80601f016020809104026020016040519081016040528092919081815260200182805461020790610d4d565b80156102545780601f1061022957610100808354040283529160200191610254565b820191906000526020600020905b81548152906001019060200180831161023757829003601f168201915b505050505081526020016003820154815260200160048201805461027790610d4d565b80601f01602080910402602001604051908101604052809291908181526020018280546102a390610d4d565b80156102f05780601f106102c5576101008083540402835291602001916102f0565b820191906000526020600020905b8154815290600101906020018083116102d357829003601f168201915b505050505081526020016005820160009054906101000a900460ff1615151515815260200160068201805461032490610d4d565b80601f016020809104026020016040519081016040528092919081815260200182805461035090610d4d565b801561039d5780601f106103725761010080835404028352916020019161039d565b820191906000526020600020905b81548152906001019060200180831161038057829003601f168201915b505050505081525050815260200190600101906100c0565b50505050905090565b60008686905011610404576040517f08c379a00000000000000000000000000000000000000000000000000000000081526004016103fb90610ddc565b60405180910390fd5b6000888890501161044a576040517f08c379a000000000000000000000000000000000000000000000000000000000815260040161044190610e48565b60405180910390fd5b600080600181600181540180825580915050039060005260206000209060070201905082828260020191906104809291906106fd565b5086868260010191906104949291906106fd565b5060008160030181905550338160000160006101000a81548173ffffffffffffffffffffffffffffffffffffffff021916908373ffffffffffffffffffffffffffffffffffffffff16021790555088888260040191906104f59291906106fd565b5084848260060191906105099291906106fd565b5060018160050160006101000a81548160ff0219169083151502179055507f3e5b07753e33c2d176602b0d21126ecb59e93f49b20e1009147b156a15e59eec8160000160009054906101000a900473ffffffffffffffffffffffffffffffffffffffff168260405161057c92919061106e565b60405180910390a1505050505050505050565b60005b6000805490508110156106f95760008082815481106105b4576105b361109e565b5b906000526020600020906007020160020180546105d090610d4d565b80601f01602080910402602001604051908101604052809291908181526020018280546105fc90610d4d565b80156106495780601f1061061e57610100808354040283529160200191610649565b820191906000526020600020905b81548152906001019060200180831161062c57829003601f168201915b50505050509050826040516020016106619190611109565b60405160208183030381529060405280519060200120816040516020016106889190611109565b6040516020818303038152906040528051906020012014156106e557600082815481106106b8576106b761109e565b5b906000526020600020906007020160030160008154809291906106da9061114f565b9190505550506106f9565b5080806106f19061114f565b915050610592565b5050565b82805461070990610d4d565b90600052602060002090601f01602090048101928261072b5760008555610772565b82601f1061074457803560ff1916838001178555610772565b82800160010185558215610772579182015b82811115610771578235825591602001919060010190610756565b5b50905061077f9190610783565b5090565b5b8082111561079c576000816000905550600101610784565b5090565b600081519050919050565b600082825260208201905092915050565b6000819050602082019050919050565b600073ffffffffffffffffffffffffffffffffffffffff82169050919050565b60006107f7826107cc565b9050919050565b610807816107ec565b82525050565b600081519050919050565b600082825260208201905092915050565b60005b8381101561084757808201518184015260208101905061082c565b83811115610856576000848401525b50505050565b6000601f19601f8301169050919050565b60006108788261080d565b6108828185610818565b9350610892818560208601610829565b61089b8161085c565b840191505092915050565b6000819050919050565b6108b9816108a6565b82525050565b60008115159050919050565b6108d4816108bf565b82525050565b600060e0830160008301516108f260008601826107fe565b506020830151848203602086015261090a828261086d565b91505060408301518482036040860152610924828261086d565b915050606083015161093960608601826108b0565b5060808301518482036080860152610951828261086d565b91505060a083015161096660a08601826108cb565b5060c083015184820360c086015261097e828261086d565b9150508091505092915050565b600061099783836108da565b905092915050565b6000602082019050919050565b60006109b7826107a0565b6109c181856107ab565b9350836020820285016109d3856107bc565b8060005b85811015610a0f57848403895281516109f0858261098b565b94506109fb8361099f565b925060208a019950506001810190506109d7565b50829750879550505050505092915050565b60006020820190508181036000830152610a3b81846109ac565b905092915050565b6000604051905090565b600080fd5b600080fd5b600080fd5b600080fd5b600080fd5b60008083601f840112610a7c57610a7b610a57565b5b8235905067ffffffffffffffff811115610a9957610a98610a5c565b5b602083019150836001820283011115610ab557610ab4610a61565b5b9250929050565b6000806000806000806000806080898b031215610adc57610adb610a4d565b5b600089013567ffffffffffffffff811115610afa57610af9610a52565b5b610b068b828c01610a66565b9850985050602089013567ffffffffffffffff811115610b2957610b28610a52565b5b610b358b828c01610a66565b9650965050604089013567ffffffffffffffff811115610b5857610b57610a52565b5b610b648b828c01610a66565b9450945050606089013567ffffffffffffffff811115610b8757610b86610a52565b5b610b938b828c01610a66565b92509250509295985092959890939650565b600080fd5b7f4e487b7100000000000000000000000000000000000000000000000000000000600052604160045260246000fd5b610be28261085c565b810181811067ffffffffffffffff82111715610c0157610c00610baa565b5b80604052505050565b6000610c14610a43565b9050610c208282610bd9565b919050565b600067ffffffffffffffff821115610c4057610c3f610baa565b5b610c498261085c565b9050602081019050919050565b82818337600083830152505050565b6000610c78610c7384610c25565b610c0a565b905082815260208101848484011115610c9457610c93610ba5565b5b610c9f848285610c56565b509392505050565b600082601f830112610cbc57610cbb610a57565b5b8135610ccc848260208601610c65565b91505092915050565b600060208284031215610ceb57610cea610a4d565b5b600082013567ffffffffffffffff811115610d0957610d08610a52565b5b610d1584828501610ca7565b91505092915050565b7f4e487b7100000000000000000000000000000000000000000000000000000000600052602260045260246000fd5b60006002820490506001821680610d6557607f821691505b60208210811415610d7957610d78610d1e565b5b50919050565b600082825260208201905092915050565b7f496d61676520646f6573206e6f74206578697374000000000000000000000000600082015250565b6000610dc6601483610d7f565b9150610dd182610d90565b602082019050919050565b60006020820190508181036000830152610df581610db9565b9050919050565b7f7469746c6520646f6573206e6f74206578697374000000000000000000000000600082015250565b6000610e32601483610d7f565b9150610e3d82610dfc565b602082019050919050565b60006020820190508181036000830152610e6181610e25565b9050919050565b610e71816107ec565b82525050565b60008160001c9050919050565b600073ffffffffffffffffffffffffffffffffffffffff82169050919050565b6000610eb7610eb283610e77565b610e84565b9050919050565b60008190508160005260206000209050919050565b60008154610ee081610d4d565b610eea8186610818565b94506001821660008114610f055760018114610f1757610f4a565b60ff1983168652602086019350610f4a565b610f2085610ebe565b60005b83811015610f4257815481890152600182019150602081019050610f23565b808801955050505b50505092915050565b6000819050919050565b6000610f70610f6b83610e77565b610f53565b9050919050565b600060ff82169050919050565b6000610f97610f9283610e77565b610f77565b9050919050565b600060e083016000808401549050610fb581610ea4565b610fc260008701826107fe565b50600184018583036020870152610fd98382610ed3565b925050600284018583036040870152610ff28382610ed3565b9250506003840154905061100581610f5d565b61101260608701826108b0565b506004840185830360808701526110298382610ed3565b9250506005840154905061103c81610f84565b61104960a08701826108cb565b506006840185830360c08701526110608382610ed3565b925050819250505092915050565b60006040820190506110836000830185610e68565b81810360208301526110958184610f9e565b90509392505050565b7f4e487b7100000000000000000000000000000000000000000000000000000000600052603260045260246000fd5b600081905092915050565b60006110e38261080d565b6110ed81856110cd565b93506110fd818560208601610829565b80840191505092915050565b600061111582846110d8565b915081905092915050565b7f4e487b7100000000000000000000000000000000000000000000000000000000600052601160045260246000fd5b600061115a826108a6565b91507fffffffffffffffffffffffffffffffffffffffffffffffffffffffffffffffff82141561118d5761118c611120565b5b60018201905091905056fea26469706673582212207390573218d9847acb3860e82b944d6790479d34d3f325189147eb6651cef2e364736f6c63430008090033",
  "linkReferences": {},
  "deployedLinkReferences": {}
}