{
  "_format": "hh-sol-artifact-1",
  "contractName": "LoanContract",
  "sourceName": "contracts/Loan.sol",
  "abi": [
    {
      "inputs": [
        {
          "internalType": "uint256",
          "name": "_stable_to_eth_rate",
          "type": "uint256"
        },
        {
          "internalType": "address",
          "name": "_tokenAddress",
          "type": "address"
        }
      ],
      "stateMutability": "nonpayable",
      "type": "constructor"
    },
    {
      "anonymous": false,
      "inputs": [
        {
          "indexed": false,
          "internalType": "address",
          "name": "borrower",
          "type": "address"
        },
        {
          "components": [
            {
              "internalType": "uint256",
              "name": "tokenAmount",
              "type": "uint256"
            },
            {
              "internalType": "uint256",
              "name": "interest",
              "type": "uint256"
            },
            {
              "internalType": "uint256",
              "name": "collateral",
              "type": "uint256"
            },
            {
              "internalType": "bool",
              "name": "active",
              "type": "bool"
            }
          ],
          "indexed": false,
          "internalType": "struct LoanContract.Loan",
          "name": "loan",
          "type": "tuple"
        }
      ],
      "name": "LoanRequest",
      "type": "event"
    },
    {
      "inputs": [],
      "name": "STABLECOIN_TO_ETHER_RATE",
      "outputs": [
        {
          "internalType": "uint256",
          "name": "",
          "type": "uint256"
        }
      ],
      "stateMutability": "view",
      "type": "function"
    },
    {
      "inputs": [
        {
          "internalType": "address",
          "name": "",
          "type": "address"
        }
      ],
      "name": "borrowers",
      "outputs": [
        {
          "internalType": "uint256",
          "name": "tokenAmount",
          "type": "uint256"
        },
        {
          "internalType": "uint256",
          "name": "interest",
          "type": "uint256"
        },
        {
          "internalType": "uint256",
          "name": "collateral",
          "type": "uint256"
        },
        {
          "internalType": "bool",
          "name": "active",
          "type": "bool"
        }
      ],
      "stateMutability": "view",
      "type": "function"
    },
    {
      "inputs": [
        {
          "internalType": "address",
          "name": "borrower",
          "type": "address"
        }
      ],
      "name": "repayLoan",
      "outputs": [],
      "stateMutability": "payable",
      "type": "function"
    },
    {
      "inputs": [
        {
          "internalType": "address",
          "name": "borrower",
          "type": "address"
        },
        {
          "internalType": "uint256",
          "name": "tokenAmount",
          "type": "uint256"
        }
      ],
      "name": "requestLoan",
      "outputs": [],
      "stateMutability": "payable",
      "type": "function"
    },
    {
      "inputs": [
        {
          "internalType": "address",
          "name": "borrower",
          "type": "address"
        }
      ],
      "name": "sendUserCollateral",
      "outputs": [],
      "stateMutability": "payable",
      "type": "function"
    },
    {
      "inputs": [],
      "name": "stableCoinHolder",
      "outputs": [
        {
          "internalType": "address",
          "name": "",
          "type": "address"
        }
      ],
      "stateMutability": "view",
      "type": "function"
    }
  ],
  "bytecode": "0x60806040523480156200001157600080fd5b50604051620015673803806200156783398181016040528101906200003791906200016d565b8160028190555033600360006101000a81548173ffffffffffffffffffffffffffffffffffffffff021916908373ffffffffffffffffffffffffffffffffffffffff16021790555080600160006101000a81548173ffffffffffffffffffffffffffffffffffffffff021916908373ffffffffffffffffffffffffffffffffffffffff1602179055505050620001b4565b600080fd5b6000819050919050565b620000e281620000cd565b8114620000ee57600080fd5b50565b6000815190506200010281620000d7565b92915050565b600073ffffffffffffffffffffffffffffffffffffffff82169050919050565b6000620001358262000108565b9050919050565b620001478162000128565b81146200015357600080fd5b50565b60008151905062000167816200013c565b92915050565b60008060408385031215620001875762000186620000c8565b5b60006200019785828601620000f1565b9250506020620001aa8582860162000156565b9150509250929050565b6113a380620001c46000396000f3fe6080604052600436106100555760003560e01c8063190ef1e61461005a57806366913d91146100765780637c46499b146100a1578063b24dc1ee146100bd578063bf5d50c4146100e8578063de12983414610128575b600080fd5b610074600480360381019061006f9190610a9b565b610144565b005b34801561008257600080fd5b5061008b610475565b6040516100989190610ad7565b60405180910390f35b6100bb60048036038101906100b69190610b28565b61049b565b005b3480156100c957600080fd5b506100d261087c565b6040516100df9190610b77565b60405180910390f35b3480156100f457600080fd5b5061010f600480360381019061010a9190610a9b565b610882565b60405161011f9493929190610bad565b60405180910390f35b610142600480360381019061013d9190610a9b565b6108bf565b005b60008060008373ffffffffffffffffffffffffffffffffffffffff1673ffffffffffffffffffffffffffffffffffffffff16815260200190815260200160002090506000670de0b6b3a764000082600001546101a09190610c21565b90508160030160009054906101000a900460ff166101f3576040517f08c379a00000000000000000000000000000000000000000000000000000000081526004016101ea90610cfe565b60405180910390fd5b80600160009054906101000a900473ffffffffffffffffffffffffffffffffffffffff1673ffffffffffffffffffffffffffffffffffffffff166370a08231856040518263ffffffff1660e01b815260040161024f9190610ad7565b60206040518083038186803b15801561026757600080fd5b505afa15801561027b573d6000803e3d6000fd5b505050506040513d601f19601f8201168201806040525081019061029f9190610d33565b10156102e0576040517f08c379a00000000000000000000000000000000000000000000000000000000081526004016102d790610dd2565b60405180910390fd5b6000826001015483600201546102f69190610df2565b90508047101561033b576040517f08c379a000000000000000000000000000000000000000000000000000000000815260040161033290610e98565b60405180910390fd5b600160009054906101000a900473ffffffffffffffffffffffffffffffffffffffff1673ffffffffffffffffffffffffffffffffffffffff166323b872dd3330856040518463ffffffff1660e01b815260040161039a93929190610eb8565b602060405180830381600087803b1580156103b457600080fd5b505af11580156103c8573d6000803e3d6000fd5b505050506040513d601f19601f820116820180604052508101906103ec9190610f1b565b508373ffffffffffffffffffffffffffffffffffffffff166108fc829081150290604051600060405180830381858888f19350505050158015610433573d6000803e3d6000fd5b5060008360030160006101000a81548160ff02191690831515021790555060008360020181905550600083600101819055506000836000018190555050505050565b600360009054906101000a900473ffffffffffffffffffffffffffffffffffffffff1681565b600034116104de576040517f08c379a00000000000000000000000000000000000000000000000000000000081526004016104d590610f94565b60405180910390fd5b60008060008473ffffffffffffffffffffffffffffffffffffffff1673ffffffffffffffffffffffffffffffffffffffff16815260200190815260200160002090506000670de0b6b3a7640000836105369190610c21565b90508160030160009054906101000a900460ff161561058a576040517f08c379a00000000000000000000000000000000000000000000000000000000081526004016105819061104c565b60405180910390fd5b60025483610598919061109b565b3410156105da576040517f08c379a00000000000000000000000000000000000000000000000000000000081526004016105d19061118a565b60405180910390fd5b80600160009054906101000a900473ffffffffffffffffffffffffffffffffffffffff1673ffffffffffffffffffffffffffffffffffffffff166370a08231306040518263ffffffff1660e01b81526004016106369190610ad7565b60206040518083038186803b15801561064e57600080fd5b505afa158015610662573d6000803e3d6000fd5b505050506040513d601f19601f820116820180604052508101906106869190610d33565b116106c6576040517f08c379a00000000000000000000000000000000000000000000000000000000081526004016106bd906111f6565b60405180910390fd5b600160009054906101000a900473ffffffffffffffffffffffffffffffffffffffff1673ffffffffffffffffffffffffffffffffffffffff1663a9059cbb85836040518363ffffffff1660e01b8152600401610723929190611216565b602060405180830381600087803b15801561073d57600080fd5b505af1158015610751573d6000803e3d6000fd5b505050506040513d601f19601f820116820180604052508101906107759190610f1b565b5060006064600a346107879190610c21565b610791919061109b565b905060006040518060800160405280868152602001838152602001348152602001600115158152509050806000808873ffffffffffffffffffffffffffffffffffffffff1673ffffffffffffffffffffffffffffffffffffffff16815260200190815260200160002060008201518160000155602082015181600101556040820151816002015560608201518160030160006101000a81548160ff0219169083151502179055509050507f4c824b1fd8a263bf5ec21f393356117bb92aa5d4bc16032b98411ca5bf198688868260405161086c9291906112b2565b60405180910390a1505050505050565b60025481565b60006020528060005260406000206000915090508060000154908060010154908060020154908060030160009054906101000a900460ff16905084565b600360009054906101000a900473ffffffffffffffffffffffffffffffffffffffff1673ffffffffffffffffffffffffffffffffffffffff163373ffffffffffffffffffffffffffffffffffffffff161461094f576040517f08c379a00000000000000000000000000000000000000000000000000000000081526004016109469061134d565b60405180910390fd5b60008060008373ffffffffffffffffffffffffffffffffffffffff1673ffffffffffffffffffffffffffffffffffffffff16815260200190815260200160002090506000816001015482600201546109a79190610df2565b9050804710156109ec576040517f08c379a00000000000000000000000000000000000000000000000000000000081526004016109e390610e98565b60405180910390fd5b8273ffffffffffffffffffffffffffffffffffffffff166108fc829081150290604051600060405180830381858888f19350505050158015610a32573d6000803e3d6000fd5b50505050565b600080fd5b600073ffffffffffffffffffffffffffffffffffffffff82169050919050565b6000610a6882610a3d565b9050919050565b610a7881610a5d565b8114610a8357600080fd5b50565b600081359050610a9581610a6f565b92915050565b600060208284031215610ab157610ab0610a38565b5b6000610abf84828501610a86565b91505092915050565b610ad181610a5d565b82525050565b6000602082019050610aec6000830184610ac8565b92915050565b6000819050919050565b610b0581610af2565b8114610b1057600080fd5b50565b600081359050610b2281610afc565b92915050565b60008060408385031215610b3f57610b3e610a38565b5b6000610b4d85828601610a86565b9250506020610b5e85828601610b13565b9150509250929050565b610b7181610af2565b82525050565b6000602082019050610b8c6000830184610b68565b92915050565b60008115159050919050565b610ba781610b92565b82525050565b6000608082019050610bc26000830187610b68565b610bcf6020830186610b68565b610bdc6040830185610b68565b610be96060830184610b9e565b95945050505050565b7f4e487b7100000000000000000000000000000000000000000000000000000000600052601160045260246000fd5b6000610c2c82610af2565b9150610c3783610af2565b9250817fffffffffffffffffffffffffffffffffffffffffffffffffffffffffffffffff0483118215151615610c7057610c6f610bf2565b5b828202905092915050565b600082825260208201905092915050565b7f5365656d7320796f752068617665207265706169642074686973206c6f616e2060008201527f6f7220697420646f6573206e6f74206578697374000000000000000000000000602082015250565b6000610ce8603483610c7b565b9150610cf382610c8c565b604082019050919050565b60006020820190508181036000830152610d1781610cdb565b9050919050565b600081519050610d2d81610afc565b92915050565b600060208284031215610d4957610d48610a38565b5b6000610d5784828501610d1e565b91505092915050565b7f5365656d7320796f7520646f6e277420456e6f75676820746f6b656e20746f2060008201527f7265706179000000000000000000000000000000000000000000000000000000602082015250565b6000610dbc602583610c7b565b9150610dc782610d60565b604082019050919050565b60006020820190508181036000830152610deb81610daf565b9050919050565b6000610dfd82610af2565b9150610e0883610af2565b925082821015610e1b57610e1a610bf2565b5b828203905092915050565b7f506c6561736520776520646f6e2774206861766520656e6f7567682066756e6460008201527f7320746f2064697370656e736520706c6561736520747279206c617465720000602082015250565b6000610e82603e83610c7b565b9150610e8d82610e26565b604082019050919050565b60006020820190508181036000830152610eb181610e75565b9050919050565b6000606082019050610ecd6000830186610ac8565b610eda6020830185610ac8565b610ee76040830184610b68565b949350505050565b610ef881610b92565b8114610f0357600080fd5b50565b600081519050610f1581610eef565b92915050565b600060208284031215610f3157610f30610a38565b5b6000610f3f84828501610f06565b91505092915050565b7f706c656173652073656e642076616c69642076616c7565000000000000000000600082015250565b6000610f7e601783610c7b565b9150610f8982610f48565b602082019050919050565b60006020820190508181036000830152610fad81610f71565b9050919050565b7f506c65617365207061796f666620746865206c6f616e20796f7520686176652060008201527f77697468206669727374206265666f726520796f752063616e2067657420616e60208201527f6f74686572000000000000000000000000000000000000000000000000000000604082015250565b6000611036604583610c7b565b915061104182610fb4565b606082019050919050565b6000602082019050818103600083015261106581611029565b9050919050565b7f4e487b7100000000000000000000000000000000000000000000000000000000600052601260045260246000fd5b60006110a682610af2565b91506110b183610af2565b9250826110c1576110c061106c565b5b828204905092915050565b7f506c6561736520796f757220636f6c6c61746572616c20646964206e6f74206d60008201527f65657420746865206d696e696d756d20726571756972656d656e7420666f722060208201527f74686520746f6b656e20616d6f756e7420796f752077616e7420746f20626f7260408201527f726f770000000000000000000000000000000000000000000000000000000000606082015250565b6000611174606383610c7b565b915061117f826110cc565b608082019050919050565b600060208201905081810360008301526111a381611167565b9050919050565b7f496e73756666696369656e7420616d6f756e74206f6620746f6b656e00000000600082015250565b60006111e0601c83610c7b565b91506111eb826111aa565b602082019050919050565b6000602082019050818103600083015261120f816111d3565b9050919050565b600060408201905061122b6000830185610ac8565b6112386020830184610b68565b9392505050565b61124881610af2565b82525050565b61125781610b92565b82525050565b608082016000820151611273600085018261123f565b506020820151611286602085018261123f565b506040820151611299604085018261123f565b5060608201516112ac606085018261124e565b50505050565b600060a0820190506112c76000830185610ac8565b6112d4602083018461125d565b9392505050565b7f4f6e6c792061646d696e2063616e206163636573732074686973206d6574686f60008201527f6400000000000000000000000000000000000000000000000000000000000000602082015250565b6000611337602183610c7b565b9150611342826112db565b604082019050919050565b600060208201905081810360008301526113668161132a565b905091905056fea264697066735822122048f9bbf67ce53933da80a5d64dd02ed48b233963bf66301de11f140e4546eb1564736f6c63430008090033",
  "linkReferences": {},
  "deployedLinkReferences": {}
}